S00C000062746C342E73726563A2
S31500000000C0040020991E0000051D0000A91E000066
S31500000010A91E0000A91E0000A91E0000A91E0000BE
S31500000020000000000000000000000000A91E000003
S31500000030A91E000000000000A91E0000A91E000065
S31100000040651800008D190000A51A0000CC
S3150000004C00500028C3E3000080400050FF38FED467
S3150000005CFE70FE0CFDA8FD44FCE00052026700CDCC
S3150000006C03342303A34300000649064A064B064CF9
S3150000007C064D064E069706D70657064E064D064CF7
S3150000008C064B064A8659000080000000400200001C
S3150000009C0000002050020000020000206002000058
S315000000AC04000020680400000600002097040000ED
S315000000BC000000000000000080000000401000005E
S315000000CC0A000020500800001A00002060040000FE
S315000000DC2200002068200000260000209720000047
S30D000000EC0000000007000000FF
S315000000F880B56F46D4B000F005FF00F01BFD47F24F
S31500000108ED10C0F2000000F0DFFD47F211290020D3
S31500000118C0F200090DF1340A5390CDE95100CDE93A
S315000001284F00CDE94D0000BF4DA800F01FFDDDE9E9
S315000001384D40DDE94F8606F061FB834620460D46B5
S3150000014806F05CFB41EC180B404606F057FB41EC09
S31500000158190B529806F052FB41EC1A0B539806F00D
S315000001684DFB41EC1B0B304606F048FB41EC1C0BE3
S31500000178519806F043FB41EC100B504649465A4647
S315000001882B468DEC0A8B8DED0A0B02F0B3FF504619
S3150000019800F09AFD4FF47A704FF47A7101F068FD19
S315000001A8C2E7D4D4F0B503AF2DE9000B84B046F20C
S315000001B89C6204460521C9F20052C620C523009157
S315000001C800F028FBD8BB012000F074F90221C620F4
S315000001D84CF2F7720023009100F01CFB78BB00F08C
S315000001E879FAA7F11B01C720032200F0B7FB30BB41
S315000001F8002001AE4FF00208A7F11B0917F81B1CD7
S3150000020817F81A2C054642EA0120032D26F8150090
S3150000021813D0C6204CF2F7720023CDF8008000F008
S31500000228F9FA50B900F056FAC7204946032200F0F9
S3150000023895FB002805F10100E0D0032D05D24FF00B
S31500000248FF3004B0BDE8000BF0BD211F002000BF41
S3150000025836F91020013000EE102AB8EEC00A81EDFA
S31500000268010A04310428F3D14CF60000C4F22F70B9
S3150000027844F2000141F20042002300264FF04E5599
S315000002884FF08A4C04F1100EC4F29C71C4F2CD7280
S31500000298C4F66023C4F638368EE84F00C4E9095C14
S315000002A80020CEE780B56F4682B00221C62044F60C
S315000002B8A3020023009100F0ADFA062002B0BDE8C3
S315000002C8804000F0F7B8D4D4B0B502AF84B00C467D
S315000002D8054600F0FFF9A7F11101C720092200F031
S315000002E83DFB08B104B0B0BD17F8101C17F8110C87
S315000002F817F80E2C090217F80B3C41EA004017F8CC
S315000003080A1C1044286041EA0320208004B0B0BDCE
S31500000318A2F5004C00EE10CA90ED002AB8EEC00A0D
S3150000032822EE002A90ED097A90ED071A90ED013A2F
S3150000033822EE002A22EE072A90ED035AD0ED0A0A89
S3150000034832EE011A23EE002A90ED024A22EE002A26
S3150000035827EE022A20EE853A33EE022A24EE003AE8
S3150000036890ED086A23EE000A20EE070A90ED043A9B
S3150000037890ED054A90ED067A30EE060A21EE025A0D
S3150000038833EE446A62EE000A74EE471A60EEA10A7A
S3150000039825EE065A35EE205A61EE000A37EE437A04
S315000003A860EE870A30EE855A61EE210A20EE060ACB
S315000003B830EE200A22EE076A36EE000A85EE000ABB
S315000003C822EE045A23EE016A34EE434A36EE455AC3
S315000003D831EE422ADDE9000C24EE004A35EE444AA5
S315000003E884EE022A31EE001A33EE423A21EE031A5F
S315000003F803EE101AB8EEC33A30EE030A81EE000A8D
S315000004089FED251A40F2E041C2F2000132EE000AE1
S3150000041883ED000A00EE102AB8EEC00A9FED1F2AE7
S3150000042820EE010A9FED1E1A0A7830EE020A30EE17
S31500000438010A012A80ED000A08D140F2E440C2F21E
S31500000448000090ED001A93ED000A12E093ED000A01
S315000004589FED151AB4EE410AF1EE10FA16DD40F2D8
S31500000468E440C2F2000080ED000A0120B0EE401A16
S31500000478087031EE400A9FED0D1A9FED0D2A20EE09
S31500000488010A30EE020A8CED000A70479FED050A54
S315000004988CED000A704700BF00002F3B000034C2F5
S315000004A89A99B9C00000000000C8AF477B14AE3D5A
S315000004B80AD7734181B0009000984FF47A7101B061
S315000004C801F0D6BB81B0002002E000BF00980130E1
S315000004D800900098B0F5FA6FA4BF01B07047F5E731
S315000004E8F0B503AF4DF8048D82B040F60358C4F258
S315000004F8080840F6001500204021C4F2080588F8CF
S31500000508000088F80010296821F48031296069689C
S3150000051821F480316960296821F001012960696840
S3150000052821F001016960296821F0040129606968E0
S3150000053821F00401696000BF01900198B0F5FA6FD7
S3150000054802DA01980130F7E70926012428684FF4F2
S315000005587A7140F0040028600194019801F088FB44
S3150000056828684FF47A7120F00400286001940198F5
S3150000057801F07EFB013EE9D1286840F004002860BE
S31500000588002001900199B1F5FA6F03DA019901315A
S315000005980191F7E7696841F00401696001900198E3
S315000005A8B0F5FA6F02DA01980130F7E7286820F00B
S315000005B804002860002001900199B1F5FA6F03DA6A
S315000005C8019901310191F7E7696821F00401696031
S315000005D801900198B0F5FA6F02DA01980130F7E751
S315000005E8002088F80000802088F8000002B05DF836
S315000005F8048BF0BDD0B502AF82B04EF2FE30C4F225
S3150000060801004AF20251018044F20401C4F20801D1
S315000006180A6840F6D80422F400720A604FF42541AD
S31500000628018040F603504023C4F2080000214FF031
S31500000638400CC4F20804C0F201734FF0800E4FF26A
S315000006480002017080F800C0A362E36280F800E04F
S31500000658C4F20902137803F07F031370137843F08A
S31500000668400313709171937893704A2313745374EB
S315000006785023D17011715371D171137803F0BF03F0
S315000006881370137843F0800313700170042180F807
S3150000069800C02160216841F00101216080F800E076
S315000006A820684FF47A7120F0010020600A2000903B
S315000006B8009801F0DDFA20684FF47A7140F00100E5
S315000006C8206032200190019802B0BDE8D04001F0C8
S315000006D8CFBAD4D481B04FF2010048F2A061C4F277
S315000006E80900C0F20101009100994A1E009219B151
S315000006F890F900100029F7D4017841F00201017041
S3150000070801B0704782B04FF2010048F2A061C4F20E
S315000007180900C0F201010091009A531E009312B11C
S31500000728027A5206F8D5027842F004020270019164
S3150000073801994A1E019221B190F90810B1F1FF3FC3
S31500000748F6DC02B07047D4D482B04FF2090048F202
S31500000758A061C4F20900C0F201010091009A531E7B
S31500000768009312B102785206F8D510F8082C42F018
S31500000778080200F8082C019101994A1E019211B14C
S3150000078801780907F8D5017801F0E701017002B090
S315000007987047D4D481B04FF2090148F2A062C4F27E
S315000007A80901C0F201020092009A531E00933AB161
S315000007B891F90020B2F1FF3FF6DC4872002000E014
S315000007C8FF2040B201B0704781B04FF20900C4F271
S315000007D809000178C90601D4002017E010F8081CA2
S315000007E841F0080100F8081C48F2A061C0F20101B6
S315000007F8009100BF00994A1E009211B101780907BD
S31500000808F8D5017801F0E7010170FF2040B201B088
S315000008187047D4D4F0B503AF2DE9000781B0D7F8F7
S3150000082808E04FF2090148F2A06CC4F20901C0F2CF
S31500000838010CCDF800C000BF009C651E00951CB1D8
S3150000084811F9084C002CF7D411F8084C44F00204AE
S3150000085801F8084C0C78E40655D4CDF800C000BF62
S31500000868009C651E009524B191F90040B4F1FF3F44
S31500000878F6DC4FF0FF364FF020086FF01F0900BF77
S3150000088816F1010A044610D0F44304EB0E06F400F0
S31500000898A8EBC60503FA05F522FA04F42C4309EB7E
S315000008A8C605002D58BF23FA05F4CDF800C000BFD1
S315000008B8009D6E1E00962DB191F90050B5F1FF3FCF
S315000008C8F6DC4C720C78E4062ED4F2455646D7D19F
S315000008D8CDF800C00098421E009210B10878400674
S315000008E8F8D511F8080C40F0080001F8080CCDF806
S315000008F800C000BF0098421E009210B10878000799
S31500000908F8D5002020E011F8080C40F0080001F89E
S31500000918080CCDF800C000BF0098421E009290B1A6
S3150000092808780007F8D50EE011F8080C40F0080022
S3150000093801F8080CCDF800C00098421E009210B1CC
S3150000094808780007F8D5FF200A7840B202F0E702D7
S315000009580A7001B0BDE80007F0BDD4D4A2B3B0B5A3
S3150000096802AF81B04FF2090548F2A06CC4F209053E
S31500000978C0F2010CCDF800C0009B5C1E00942BB1A0
S3150000098895F90030B3F1FF3FF6DC6872CDF800C088
S315000009980098431E009378B328788006F8D52878FF
S315000009A8C00614D4022A29D0012A41D115F8050C0B
S315000009B840F0400005F8050C15F8050C40F0080055
S315000009C805F8050CA87A7CE0002040B2704715F8B7
S315000009D8080C40F0080005F8080CCDF800C000BF68
S315000009E80098411E009110B128780007F8D528789C
S315000009F800F0E7002870A87AFF2095E015F8050CA6
S31500000A0840F0400005F8050CA87ACDF800C000BFF4
S31500000A180098431E009310B128788006F8D515F87B
S31500000A28050C40F0080005F8050CA87A087048E09F
S31500000A38A87A042AA2F1030E13D3002005E000BF0A
S31500000A48AB7A0B54013070450BD0CDF800C000BF0F
S31500000A58009B5C1E002B0094F2D02B789B06F7D5E2
S31500000A68EEE715F8050C40F0400005F8050CCDF842
S31500000A7800C000BF0098431E009310B12878800676
S31500000A88F8D5A87A01F80E00CDF800C00098431EE4
S31500000A98009310B128788006F8D515F8050C40F0B3
S31500000AA8080005F8050CCDF800C000BF0098431EE5
S31500000AB8009310B128788006F8D5A87A8B1803F821
S31500000AC8020CCDF800C000BF0098431E009310B179
S31500000AD828788006F8D52878114400F0F7002870A1
S31500000AE815F8080C40F0080005F8080CA87A01F873
S31500000AF8010C15F8050C00F0BF0005F8050CCDF83B
S31500000B0800C000BF0098411E009110B12878000768
S31500000B18F8D5287800F0E700287015F8080C00F0DA
S31500000B28F70005F8080C002001B0BDE8B04040B257
S31500000B387047D4D480B56F46FFF7D2FCFFF75AFD4D
S31500000B4840F2E840C2F20000FFF72CFB08B100BFF4
S31500000B58FEE700F065FA00B1FEE747F2CC20C0F2E6
S31500000B680000BDE8804000F0AFB8D4D4F0B503AFBC
S31500000B784DF8048D8CB00446FFF794FB4FF42F70A4
S31500000B884FF47A7101F074F80BA8A7F11601FFF774
S31500000B989BFB0B9937F9162C40F2E8400DF11C0C1B
S31500000BA808ADC2F2000009ABCDE9005CFFF7B0FB67
S31500000BB89DED090A9DED081A10EE100A010E207027
S31500000BC8E170010C000AA170607011EE100A21464E
S31500000BD801F8040F020E9DED072ACA70020C000ADE
S31500000BE88A70607112EE100A214601F8080F020E8B
S31500000BF8CA70020C000A40F214558A706072C2F27A
S31500000C0800054FF42F704FF47A7185ED000A85EDD3
S31500000C18011A85ED022A01F02BF8284600F00CFB94
S31500000C280DF10808404600F0D1FB40F2205CC2F204
S31500000C38000C98E86D0061466DC19CF8100040B143
S31500000C489CED000A9CED011A9CED022A9CED033AE4
S31500000C5807E0BFEE000AB0EE401AB0EE402AB0EE4A
S31500000C68403A13EE100A12EE103A04F8180F11EE75
S31500000C78102A04F8043D10EE101A04F8042D04F89E
S31500000C88041D0E0EE6700E0C090A6170110EE17154
S31500000C98110CA171110A6171190EE172190CA17278
S31500000CA8190A6172010EE173010C000AA670A1739C
S31500000CB860730CB05DF8048BF0BDD4D440F23450A8
S31500000CC8C2F2000000687047002808BF7047027823
S31500000CD848F20451C4F211011AB34FF00D0C04E0A6
S31500000CE8013001F8012C0278DAB10A2A0CD191F9FF
S31500000CF80030002B06D400BF00BF91F90030B3F1D5
S31500000D08FF3FF9DC01F801CC91F90030002BE7D45C
S31500000D1800BF91F90030B3F1FF3FF9DCE0E700BF0F
S31500000D2800BF08784007FBD57047D4D480B56F4616
S31500000D3846F20031C4F200010A6848F2045022F46F
S31500000D488032C4F211000A60417840F2385C00F83B
S31500000D58011CC2F2000C9CF80030032B00F2D08074
S31500000D68DFE803F002230915532940F0C980012062
S31500000D788CF8000080BD002330298CF800301CD088
S31500000D8831292AD140F23C50C2F200000AE0002381
S31500000D9830298CF8003016D031294FD140F2405016
S31500000DA8C2F200000121016080BD312911D030292D
S31500000DB875D102208CF8000080BD40F23C50C2F28A
S31500000DC80000036080BD40F24050C2F2000003609C
S31500000DD880BD03208CF8000080BD47F2B22E0021AA
S31500000DE80A224FF00D0CC0F2000E06E0013100F8A1
S31500000DF8012C1EF8012019291AD00A2A0CD190F9BB
S31500000E080030002B06D400BF00BF90F90030B3F1C4
S31500000E18FF3FF9DC00F801CC90F90030002BE5D44F
S31500000E2800BF90F90030B3F1FF3FF9DCDEE700BF01
S31500000E380178490748BF80BD00BFF9E747F2B22EDF
S31500000E4800210A224FF00D0CC0F2000E07E000BF89
S31500000E58013100F8012C1EF8012019291BD00A2A95
S31500000E680CD190F90030002B06D400BF00BF90F9D2
S31500000E780030B3F1FF3FF9DC00F801CC90F90030FF
S31500000E88002BE5D400BF90F90030B3F1FF3FF9DC41
S31500000E98DEE700BF00BF01784907FBD530E0002137
S31500000EA847F2E62E8CF800104C224FF00D0CC0F2DB
S31500000EB8000E06E0013100F8012C1EF80120182961
S31500000EC81BD00A2A0CD190F90030002B06D400BF9B
S31500000ED800BF90F90030B3F1FF3FF9DC00F801CC10
S31500000EE890F90030002BE5D400BF90F90030B3F13B
S31500000EF8FF3FF9DCDEE700BF00BF01784907FBD5F5
S31500000F0880BDD4D444F20400C4F208000168052266
S31500000F1821F08061016048F20050C4F211000021FE
S31500000F28817001784FF4CF7301F07F0101708179E8
S31500000F38817941F010018171017801F0BF010170DA
S31500000F48017801F0DF010170017801F0F701017005
S31500000F58017801F0FC01013101705021417081785E
S31500000F6841F010018170817841F0400181708178EB
S31500000F7841F02001817040F60350C4F20800017860
S31500000F8801F07F010170017841F04001017040F6DF
S31500000F984410C4F20800016841F480310160016818
S31500000FA862F31C610160416841F480314160416827
S31500000FB862F31C6141604EF2FE30C4F201004AF24F
S31500000FC81051018048F27000C4F20000016821F057
S31500000FD8010101604EF28030CEF20000016821F076
S31500000FE80101016046F20031C4F200010A6863F3A8
S31500000FF808020A60302180F880104FF68051CFF63B
S31500001008FF71012242504EF60850CEF200000068E9
S3150000101840F63551C0F200010164BFF34F8F7047A7
S31500001028B0B502AF40F60354C4F20804207840F67F
S31500001038DC0500F07F0020702078C4F2080540F037
S315000010484000207028684FF47A7120F480302860B8
S31500001058286840F004002860286820F0010028600D
S315000010680A2000F005FE28684FF47A7140F0010066
S315000010782860207800F0BF002070207840F08000BB
S315000010882070642000F0F4FD40F24450C2F20000E3
S315000010983221017042F21031818140F24801C2F2D8
S315000010A8000140F26C5341F23D2501F13002C2F2D3
S315000010B8000341F2011C41F29114C0F2000500F14F
S315000010C8100EC0F2000CC0F200048EE81810C0E939
S315000010D80751426200F0BEF910B1FF2040B2B0BD20
S315000010E840F24450C2F2000000F0A2FB002818BFEC
S315000010F84FF0FF3040B2B0BDF0B503AF2DE9000B9D
S3150000110882B01C4690460E460546FFF7E3FA68008D
S31500001118C0B2FFF73FFB18B1FF25FFF715FB03E049
S31500001128FFF752FB28B1FF2568B202B0BDE8000BF5
S31500001138F0BD3046FFF72EFB0028EDD1FFF744FB44
S315000011480028F0D14FF00009D4B100260025CDF8CB
S31500001158049000BF0198B0F57A7F03DA0198013050
S315000011680190F7E718F80600FFF714FB0028D3D11B
S31500001178FFF72AFB0028D6D10136A642E7D1CCE7ED
S315000011880025FFF7E1FACFE78BB1F0B503AF4DF8CD
S31500001198048D04460E4615469846FFF79BFA6400EA
S315000011A8E0B2FFF7F7FA28B1FFF7CEFA05E0FF201D
S315000011B840B27047FFF708FB30B1FF205DF8048B9B
S315000011C8BDE8F04040B270473046FFF7E3FA002822
S315000011D8EAD1FFF7F9FA0028EFD14FF20106C4F277
S315000011E80906FFF78FFAFFF76DF944F00100C0B260
S315000011F829464246FFF7B2FB96F90000B0F1FF3FD9
S3150000120801DD0020DAE74DF6F104CFF6FF7407E0BA
S3150000121896F900000134B0F1FF3F4FF00000CDDC35
S31500001228002CF5D1FFF75CF9FFF7E4F96420FFF726
S3150000123841F9EDE7FFF73EB9F0B503AF4DF804BD48
S3150000124886B040F27855C2F200052978DFE801F049
S31500001258027B1965FFF732FD40F27C51C2F20001AC
S31500001268086040F24450C2F2000000F0BFFA0028BD
S3150000127800F0848047F20120C0F20000FFF724FD49
S3150000128876E040F28054064640F24450C2F200042A
S31500001298C2F20000214600F0B9FA002868D1621EA1
S315000012A800212023304600BF12F8016F013B31446C
S315000012B8FAD109065CD0002103910294002814BFD4
S315000012C890ED010AB3EE090A0020C4F24820049002
S315000012D840F23C6440F2A05040F24451C2F200048D
S315000012E8C2F20000C2F2000102AB00228DED050A2F
S315000012F8009401F023FC01285ED0C0B2002861D119
S3150000130804F1440640F294604ECEC2F2000080E832
S3150000131846000121C360017454E0FFF7CFFC40F298
S315000013287C51C2F200010968401A40F6B831884279
S3150000133820D340F2A861C2F200010A680020287092
S31500001348501C086016E0FFF7B9FC40F27454C2F26C
S3150000135800042168401A64280CD3FFF7AFFC20600C
S3150000136840F24450C2F2000002A900F03FF870B102
S315000013780020287006B05DF804BBF0BDFFF79EFCA0
S3150000138840F27451C2F2000108600120F1E79DF9AC
S3150000139808000028EED440F24450C2F2000000F0E3
S315000013A83BF888B1C0B2F928E2D140F24450C2F203
S315000013B8000000F03DFADBE747F2D410C0F2000067
S315000013C8FFF782FC0320D4E70220D2E7B0B502AFCC
S315000013D840F2946CC2F2000C624692E83A4080E809
S315000013E83A4000208CF81000B0BDD4D4B0B502AF96
S315000013F882B0446900780D46A7F1090294210123B9
S31500001408A04708B1FD2003E017F8090C2870002052
S3150000141840B202B0B0BDD4D480B56F4682B0D0F821
S3150000142814C000787A1EB7210123E04708B1FD20D1
S315000014380CE017F8010C20B1410604D440B200288C
S3150000144803D4002002E0FA2000E0F92040B202B0FE
S3150000145880BDD4D4F0B503AF2DE9000782B00446A9
S31500001468406900218DF8041058B3A06948B3E069B3
S3150000147838B30DF10409A7F1190A40F2E73800BF9D
S31500001488A66920780D4693214A460123B04710BB2A
S3150000149866692078942152460123B047D8B9E16994
S315000014A817F9196CC8208847B6F1FF3F03DC454594
S315000014B805F10101E4D340F2E630854203D9FE2066
S315000014C80AE0F72008E066692078A7F11B020021E8
S315000014D80223B04728B1FD2040B202B0BDE800079C
S315000014E8F0BD17F81B0C17F81A1CA28941EA002050
S315000014F8904214D166692078621C20210623B047E1
S315000015080028E8D1616AD4E90426207891F82C30BD
S315000015182621B047002818BF6FF00200DCE7FC2040
S31500001528DAE7D4D4F0B503AF4DF8048D8EB0804613
S3150000153845690078A7F14102B7210123A847002889
S3150000154840F08380D8F820C09CF80530002B47D09F
S3150000155898F8031098F8042000EE101A9FED582A00
S3150000156898F80550B8EE400A01EE102AB8EE411A6E
S3150000157820EE020A30EE010A01EE105A9FED512ABA
S31500001588B8EE411A98F806E031EE021ADCF808209F
S315000015989FED4D2A9FED4D3AB1EE400A0025A7F181
S315000015A8210100BF6E1C545D905D40EA04200EFACE
S315000015B880F004EE100AB8EEC44A21EE044A34EE6E
S315000015C8024A24EE004A84EE034ABDEEC44A14EEEB
S315000015D8100A040A4C55AC1CE5B29D428855E1D365
S315000015E8D8F8186098F800009CF80410A7F12102B2
S315000015F8B04750BBD8F82030D8F8186098F80000E3
S315000016081A69197B5B7BB047F8B9D8F82030D8F847
S31500001618186098F800009A69197D5B7DB047A0B9F3
S31500001628D8F82030D8F8186098F800001A6A197F98
S315000016385B7FB04748B9D8F8186098F80000D8F822
S31500001648202093210123B04728B1FD2040B20EB0D7
S315000016585DF8048BF0BDA7F11105D8F8146098F869
S31500001668000094212A460123B0470028EDD1D8F876
S315000016781C1017F9114C32208847002CEDD4D8F8E5
S315000016882020D8F8146098F8000092F8241092F8F0
S315000016982530A7F14102B0470028D6D117F8410CEA
S315000016A817F8401C17F83F2C17F83E3C41EA002073
S315000016B8A8F80A0043EA0220A8F808000020C5E7AF
S315000016C800008043000020440000FAC800803B4B1D
S315000016D8F0B503AF4DF8048D84B0D0F824C0804629
S315000016E89CF80530002B45D098F8031098F804208C
S315000016F800EE101A9FED392A98F80540B8EE400A10
S3150000170801EE102AB8EE411A20EE020A30EE010A5E
S3150000171801EE104A9FED322AB8EE411A98F806E013
S3150000172831EE021ADCF808209FED2E2A9FED2E3A9C
S31500001738B1EE400A00216C464E1C555C905D40EAAD
S3150000174805200EFA80F004EE100AB8EEC44A21EE1F
S31500001758044A34EE024A24EE004A84EE034ABDEEF9
S31500001768C44A14EE100A050A65540231C9B29942F0
S31500001778A055E1D3D8F8186098F800009CF8041032
S315000017886A46B047A8B9D8F82430D8F8186098F847
S3150000179800001A69197B5B7BB04750B9D8F824302A
S315000017A8D8F8186098F800009A69197D5B7DB047EB
S315000017B828B1FD2040B204B05DF8048BF0BDD8F81E
S315000017C82430D8F8186098F800001A6A197F5B7FE9
S315000017D8B047002818BF6FF00200EBE7000080430F
S315000017E8000020440000FAC800803B4B80B56F46D5
S315000017F80178D0F818C0426A084693210123E047C9
S31500001808002818BF6FF0020080BDD4D480B56F469B
S31500001818426AD0F814E092F824C0007892F825308D
S315000018280A466146F047002818BF6FF0020080BDDF
S31500001838D0B502AF0446FFF775FE002818BFD0BD25
S31500001848E169322088472046BDE8D040FFF740BF0F
S3150000185880B56F46FEF74CFC002080BDEFF3038091
S315000018684FF0704101EB006046F200328015C4F279
S315000018780002835823F4803383508058EFF30380A3
S3150000188801EB006040F2EC618015C2F200010858D5
S3150000189801690A7BD2071AD190F82A3090F82C20D1
S315000018A8934222D1026A002A41D080B56F4690F849
S315000018B82D30002B45D090F83130002B4ED0002328
S315000018C8012A80F8313056D08B72026A50E090F8BF
S315000018D82D2012B190F83120F2B1002202620122C5
S315000018E880F82F205420C872704790F82D30022AAD
S315000018F804D1002B1EBF5220C872704790F82820CA
S31500001908CA7090F82B1090F82C20013980F82B100B
S31500001918511C80F82C10704749798269436AD15462
S31500001928D0E908230169013A0133C0E9082390F890
S315000019382E20002AD6D05222CA72012180F83010F1
S3150000194870478369D0F824C0A2F1010E13F80C3051
S315000019580CF10102C0E908E2CB7080BD49798269C1
S31500001968436AD154D0E908134A1E591CC0E9082114
S315000019780169012A02D120228A720169FF23CB70EC
S3150000198880BDD4D4D0B502AF82B0EFF303804FF058
S31500001998704101EB006040F2EC618015C2F2000173
S315000019A80C582069C17A01F0F701C17294F82F002A
S315000019B8C0B12069F021C172A06B00281ABFD0E916
S315000019C80012CDE900126846E16B01600121017140
S315000019D8616B8847A06B00281CBFDDE90012C0E9CF
S315000019E8001236E094F82A1094F82C0081420ED1A1
S315000019F8206A70BB94F82D000221002808BF032135
S31500001A0894F830202069B2B30022C2723AE060B17D
S31500001A1894F82D1002284FF000000BD100291CBFA6
S31500001A2894F8290040F0010004E02920012908BFA4
S31500001A382820205C21690022CA722169C87094F89E
S31500001A482B0094F82C10013884F82B00481C84F8D5
S31500001A582C00EFF303804FF0704101EB006046F273
S31500001A6800318015C4F20001425822F480324250F7
S31500001A78405802B0D0BDF022C2722069827802F0C6
S31500001A88CF028270A06B00281ABFD0E90023CDE9E7
S31500001A9800236846E26B026099E7D4D4F0B503AF39
S31500001AA84DF804BD82B04FF07041EFF3038001EBAF
S31500001AB8006140F2EC628815C2F20002105846F244
S31500001AC800344279C4F200044FF600532243CFF69D
S31500001AD8FF73D25C0D1602F00306032E07D054F8E6
S31500001AE8251021F4803144F8251054F82510816812
S31500001AF829B14279C068CDE9000268468847032EB5
S31500001B0807D154F8250020F4803044F8250054F80D
S31500001B18250002B05DF804BBF0BDD4D44EF2200017
S31500001B28C4F20100817940F2C0420068C2F20002A4
S31500001B3852F82110C0F3026021FA00F040F2007159
S31500001B48C2F2000108607047F0B503AF4DF8048D86
S31500001B584EF2FE3CC4F2010C4CF204124AF2035057
S31500001B68C4F20102ACF80000012010801088002899
S31500001B78FCD147F200030120C4F2000322F8040C4A
S31500001B889860186040F2C04342F6005E41F20024B5
S31500001B984CF200284EF22001C2F20003C0F2311EB8
S31500001BA8C0F27A044FF400450026C0F6EB38C4F2BA
S31500001BB80101C3E900E4C3E90256C3E904688D7963
S31500001BC80C6853F82550C4F3026440F2007E25FAE7
S31500001BD804F4C2F2000ECEF800408CF882008E752E
S31500001BE8087FC007FCD042F2117008810020887275
S31500001BF8087F8006FCD50320107641F22120C2F228
S31500001C08010008600520887188790A6853F8200061
S31500001C18C2F30262D040CEF8000042F20C00C4F2D1
S31500001C280000F12202700122F02300F8042C037050
S31500001C384FF425400A7481F83220ACF800005DF8AC
S31500001C48048BF0BDD0B502AF43F22800C4F20800F9
S31500001C5800240470012000F0F3F84EF2BB41C4F2F0
S31500001C68010101200C70BDE8D04000F0BDB8D4D405
S31500001C7840F20072C2F20002126841F20023C0F27A
S31500001C887A039A4201FB00F00FD340F6FF01C0F237
S31500001C983D0111444DF68362C4F21B32A1FB0212C8
S31500001CA8110DA0FB0101D9B11FE04CF6002348F63F
S31500001CB83811C3F69A33C0F24101B3FBF2F28842F7
S31500001CC806D24FF47A714843B0FBF2F0800807E079
S31500001CD89200B0FBF2F0884207D24FF47A7148437B
S31500001CE8002808BF704700F005B84FF0FF3000F035
S31500001CF801B8D4D401380028FCD17047F0B503AF39
S31500001D082DE9000B46F22018C4F20008B8F80000C6
S31500001D18B8F8201040F2AC6501EA00091FFA89F606
S31500001D280024C2F2000502E00134102C0AD026FA7B
S31500001D3804F0C007F8D055F824100029F4D0E0B212
S31500001D488847F1E7A8F81090BDE8000BF0BDD4D499
S31500001D58F0B503AF4DF804BD84B048F24806032039
S31500001D68C4F2000600F06CF86FF0FF0047F2063484
S31500001D7830604FF0FF300021C0F200040122CDE9A7
S31500001D88020000BF34F8113002FA01F5002B01F108
S31500001D98010118BFA8430329F4D14EF280320190FD
S31500001DA8002001A9CEF2000251F8203006EB80058A
S31500001DB8AB6242F8203001300328F5D1032000F049
S31500001DC813F846F200310020C4F2000134F810205E
S31500001DD8002A18BF41F8202001300328F6D104B0A4
S31500001DE85DF804BBF0BDD4D40122EFF3108182F371
S31500001DF8108840F2F862C2F2000232F8103023B1BD
S31500001E0832F81030013B22F8103032F8102012B1A7
S31500001E1881F3108870474EF2FE3CC4F2010C47F27B
S31500001E280042BCF80030C0F2000232F8100043F459
S31500001E38254222EA0000ACF8000081F310887047BA
S31500001E4880B56F460122EFF3108182F3108840F2C5
S31500001E58F862C2F2000232F810308BB94EF2FE3C3C
S31500001E6847F20043C4F2010CC0F20003BCF800E0DC
S31500001E7833F8103043EA0E0343F42543ACF8003038
S31500001E8832F81030013322F8103081F3108880BD03
S31500001E9880B56F4600F006F8FFF7DAFCFEE7D4D403
S31500001EA800BE7047F0B503AF2DE9000B4EF608509B
S31500001EB8CEF200004FF47001C0F8801040F2000125
S31500001EC8C0F200010160002000F0BAF8FFF73CFEFE
S31500001ED8012000F0B5F847F21C38C0F20008D8F81F
S31500001EE8006040F2C000C2F2000080F30A8896B192
S31500001EF8D8F804003546041D04E000BF013D04F18E
S31500001F080C0408D060790028F8D154E90101091AAF
S31500001F1804F05EF8F2E7D8F80890B9F1000F13D08C
S31500001F28D8F80C004D4600F1080403E0013D04F121
S31500001F38100409D060790028F8D154E90202216812
S31500001F48121A04F049F8F1E7FFF7E8FDFFF77AFE01
S31500001F580320FFF775FF40F60E510C20C4F2080166
S31500001F684FF6FF72013821F8022FFBD10320FFF745
S31500001F783BFF0320FFF764FF0420C4F20E00002194
S31500001F88016041608160C1600320FFF72DFF0220D8
S31500001F9800F056F8A6B1D8F804004FF48075041D71
S31500001FA804E000BF013E04F10C0409D06079B5EBEA
S31500001FB8002FF7D154E90101091A04F009F8F1E7ED
S31500001FC8B9F1000F16D0D8F80C004FF4807600F15E
S31500001FD8080404E0B9F1010904F110040AD0607993
S31500001FE8B6EB002FF6D154E902022168121A03F063
S31500001FF8F3FFEFE740F21474C2F20004204601F042
S3150000200859F8204601F06CF847F6D23047F6D23137
S31500002018C0F20000C0F20001091A8C10012C06DB80
S31500002028051F00BF55F8040F8047013CFAD1FFF79A
S315000020388FFE0020BDE8000BBDE8F04000F002B8B6
S315000020487047D4D47047D4D4F0B503AF2DE9000750
S315000020582DED0C8B90B09FED9B3A9946F4EE432AF2
S315000020689046B0EE608A0E46F1EE10FA824606DD1C
S315000020789FED953AF4EE432AF1EE10FA0FD488EE66
S31500002088011A9FED923A81EE031A9FED913A31EECD
S31500002098031A9FED903A31EE211A71EE032A9FED4D
S315000020A88E9A9FED8E1A82FE893AB4EE413A82FEE6
S315000020B8092AF1EE10FAB4EE412A31FE03AAF1EE2E
S315000020C810FA10EE100AC9ED102A31FE02BA04F011
S315000020D895FB41EC100B02F037FD51EC100B04F0A8
S315000020E86EFEDAF860100CEE100A0429A6F1040652
S315000020F84FF02C0413D200BF56F8040F04F07EFBF1
S3150000210841EC100B02F020FD51EC100B04F057FEC9
S315000021180AEB04010434502C4860EDD137E0B6EEE2
S3150000212800DA00BF56F8040F04F068FB41EC100B08
S3150000213802F00AFD51EC100B04F041FE0AEB040113
S3150000214891ED010A01EE100A31EE401A21EE0D1A40
S31500002158043431EE000A502C81ED010AE2D19AEDE1
S31500002168150A9AED161A3CEE403A23EE0D3A9AED08
S31500002178172A33EE00CA3BEE410A20EE0D0A30EE6E
S3150000218801BA3AEE420A20EE0D0A30EE02AADAF851
S31500002198600000213C288AED15CA8AED16BA8AED38
S315000021A817AACAF8801014D80AF130005CC851463C
S315000021B85CC190E87C009FED4A1A7CC19AED100A32
S315000021C88AED09CA81EE009A8AED0ABA8AED0BAA47
S315000021D8E9E1B0F5167F28D99AED091A9FED410A6B
S315000021E83CEE411AB4EE401AF1EE10FA1DDB9AEDF8
S315000021F8041A9AED102A32EE411AB4EE401AF1EE9C
S3150000220810FA12DBAAF10402092300BF92ED011AA3
S3150000221892ED0D2A043232EE411AB4EE401AF1EE6E
S3150000222810FAA8BF0131013BF0D19AED040A9AEDE4
S31500002238101AB4EE401AF1EE10FA0EDA9FED2A0AD9
S3150000224847F208420021C0F2000200BF53588342F9
S3150000225808D204310C29F9D158E0C8B2062822D987
S31500002268012678E000294FD047F21446C0F200064E
S315000022780E44114451F8041C16ED010A96ED001A95
S315000022885A1A02EE102A31EE401AB8EE422A81EEA8
S31500002298021A401A02EE100AB8EE422A21EE021A73
S315000022A831EE000A32E00AF130006CC851466CC1C2
S315000022B890E87C007CC18AED09CA8AED0ABA8AEDE3
S315000022C80BAA47E000008CC300247449A306533BBD
S315000022D88D479BC3EC51B8C0000000000000C842FF
S315000022E8CDCCCC3DA69B443A0EA21138F99E01C22C
S315000022F871883342CCBC8CAB9F33E5BF4A0143405F
S3150000230811EA2D81999771BDB7EE000AAAF1040169
S3150000231809208DED060A00BF91ED011A91ED0D2AEF
S31500002328013832EE412A20EE022A32EE011A81EDF8
S31500002338011A01F10401EFD19AED092A9AED153A2D
S315000023489AED101A33EE423A20EE030A30EE020AEC
S315000023588AED090A00269AED140AB7EE00CA80EE3D
S31500002368010A1FED1E1A1FED1E2A80FE0C0A20EE1A
S31500002378010A30EE020A00F0D5FD8CEE001A1FEDB8
S3150000238823DAAAF1040301202C2106AA30EE412AF9
S3150000239830EE010A82EE000A1FED291A1FED292ADE
S315000023A820EE010A30EE020A80FE0C0A93ED011AAD
S315000023B893ED0D2A551831EE421AB4EE4D1AF1EE88
S315000023C810FA01F1040103F1040305ED0B1A98BF95
S315000023D800205029EAD1B1EE041AB4EE410AF1EE12
S315000023E810FA9DED0ABA31FE00AA000600F0AA808E
S315000023F8DAF8340002A90F9006A800F05DFD9AED00
S315000024080A0A9AED161AB0EE49CA30EE412AB4EE17
S315000024184D2AF1EE10FA11D506A804A98DED060A83
S315000024288DED071A00F0DCFC9DED040AB7EE041AE0
S315000024381FED572A20EE010A80FE02CA9AED0BDA32
S315000024489AED170A8DED04CA3DEE400A10EE100A01
S3150000245804F0D4F91FED560B53EC102B04F0C6FC10
S31500002468B0EE490A50B306AE05A930468DED06DA38
S315000024788DED07DA00F0D8FC9DED050AB7EE04CA23
S315000024881FED6BDADAF82C00DAF85C1020EE0C0A8D
S3150000249880FE0D0ACDE9060103A930468DED050A31
S315000024A800F0C2FC9DED030A9DED051A20EE0C0A0C
S315000024B880FE0D0A9DED04CA30EE410AB4EE4C0AC0
S315000024C8F1EE10FA8DED030A30FE0C0A3BEE400AD7
S315000024D880FE090A05A801A98DED050A00F0C8FCC9
S315000024E89DED020A9FEDEF1A9DED012A80FE010A75
S315000024F882FE011AB6EE002A2AEE011A20EE020A18
S3150000250830EE019A00EE108A9FEDE71A4FFA88F02E
S31500002518B8EE400A30EE011A002820FE010A10EE35
S31500002528100A04F06BF941EC110B9FEDDB0B02F07E
S31500002538C3FD51EC100B04F042FC00EE100A29EE24
S31500002548009A30E00020B4EE4DBAF1EE10FA58BF0A
S31500002558012086F001019FEDD59A084323D1B5EEF7
S3150000256840BAB1EE4B0AF1EE10FA9FEDD11A3BFED6
S31500002578000A9FEDD02A20EE010A30EE020A00F08A
S31500002588D1FC8CEE001A30EE412A30EE010A82EEBA
S31500002598000A9FEDC91A9FEDC92A20EE010A30EEFE
S315000025A8020A8AED200A9FEDC10A9FEDC5AA89FE97
S315000025B800BA9FEDBB0A47F238462BEE0A9A082462
S315000025C8C0F20006301990ED001AB4EE491AF1EE81
S315000025D810FA03DD043C201DF4D12EE047F220401A
S315000025E8C0F20000204490ED00CA47F22C40C0F229
S315000025F80000204490ED000A39EE411A20EE010A47
S31500002608B7EE001A30EE010A10EE100A04F0F6F8DA
S3150000261841EC100B02F098FA51EC100B04F0CFFBCA
S3150000262800EE100A47F24440C0F20000204490ED44
S31500002638001A2CEE000A30EE010ADAF860000128CA
S3150000264810D19FED970A8AED1EBA0824301990ED2D
S31500002658001AB4EE491AF1EE10FA1CDD043C201DEE
S31500002668F4D149E0B7EE001A80FE010A9AED1E1A67
S315000026789AED1F2A9FED933A3BEE414A30EE420A05
S3150000268824EE034A20EE030A34EE01BA30EE020ABB
S315000026988AED1EBA34E047F22040C0F2000020441A
S315000026A890ED00BA47F22C40C0F20000204490EDAD
S315000026B8000A39EE411A20EE010AB7EE001A30EE8A
S315000026C8010A10EE100A04F099F841EC100B02F01A
S315000026D83BFA51EC100B04F072FB00EE100A47F2BD
S315000026E84440C0F20000204490ED001A2BEE000A88
S315000026F89AED1EBA30EE010AB7EE001A80FE010AFC
S315000027082BEE0A1A8AED1F0A89ED110A89ED121AAB
S3150000271889ED13BA9AF8980070B100208AF89800E3
S315000027280020C4F2C8309FED680A8AED199A8AED2E
S315000027381A9ACAF874009BE09AED190A9FED632A63
S3150000274839EE405A9AED1A1A25EE022A32EE000A96
S315000027589FED5F2A39EE415A25EE022A32EE011A1A
S315000027689FED5C5A9AED1B3A30EE412A32EE055A35
S3150000277833EE055A9FED4A3A9FED576A85FE035A8E
S31500002788B4EE465AF1EE10FA36FE055A9FED536A34
S315000027989AED1C4A32EE066A34EE064AB5EE404A0F
S315000027A8F1EE10FA9FED4E6A33FE044A84FE064A9D
S315000027B89FED4C6A8AED190AB4EE462AF1EE10FA34
S315000027C88AED1A1A8AED1B5A8AED1C4A32DC9FEDED
S315000027D8466AB4EE465AF1EE10FA2BDC9FED433A00
S315000027E8B4EE432AF1EE10FA06DD9FED413AB4EE57
S315000027F8434AF1EE10FA19DC9FED3E3AB4EE431A5D
S31500002808F1EE10FA12DD80EE010A9AED1D1A9FED1F
S315000028183B2A31EE021ABFEE002A30EE020A9FED7D
S31500002828382A20EE010A20EE023A03E09FED320A2A
S3150000283822EE003A9AED1D0A9FED321A9FED222AE2
S3150000284833EE000A29EE011A9FED2F3A31EE021AED
S31500002858B4EE431AF1EE10FA33FE011A80FE020AAC
S31500002868B4EE410AF1EE10FA31FE000A8AED1D0AAD
S3150000287889ED140ADAF8100089ED0F8AC9F83800CC
S31500002888DAF8601000203D2938BF012010B0BDECF1
S315000028980C8BBDE80007F0BD000000E07EAEF03FFF
S315000028A800000000BD378635000080C327A0093C1C
S315000028B83EE7963F38DC91BF8716AF42E5908F42D8
S315000028C8D7A3F03F9AE4C23D0000C843B6A0453CF2
S315000028D8A14C343CB9B751BCCDB1A93493F9283AC7
S315000028E8060DFABCB9B7513CFF02D72C93F928BAA2
S315000028F8C4359DB86F12833A2C923A420000C8C379
S315000029087FE57B3DFF440E4700409C45D4D4D4D494
S31500002918F0B503AF4DF804BD2DED0A8B0546006EE4
S315000029289FED7F1A47F264420E46B0EE608A002198
S31500002938C0F200025358834203D204311429F9D154
S3150000294821E0F1B147F25044C0F200040C441144AE
S3150000295851F8041C14ED011A94ED002A5A1A03EED4
S31500002968102A32EE412AB8EE433A82EE032A401A7A
S3150000297803EE100AB8EE433A22EE032A32EE011AA3
S3150000298801E0B7EE001A95ED212A30EE423A21EE23
S31500002998031A31EE021A81EE000A85ED211A10EEAD
S315000029A8100A03F02BFF41EC100B02F0CDF851ECA6
S315000029B8100B04F004FA9FED5B0A01EE100A81EE93
S315000029C8000A95ED231A9FED582A30EE410A20EEAB
S315000029D8020A30EE010AB0EE001A85ED230A30EE3F
S315000029E8010A10EE100A03F009FF41EC110B9FEDE6
S315000029F84A0B02F061FB51EC100B04F0E0F99FED75
S31500002A084B9A00EE100A80EE090A00F08BFA95ED53
S31500002A18231A95ED242A21EE011A9FED463A31EE46
S31500002A28421A21EE031A31EE022AB1EEC21AB7EEA5
S31500002A3800BA9FED3FAA3BEE400A95ED25CA20EE67
S31500002A480A0A85ED220A85ED242AB4EE411AF1EE2A
S31500002A5810FA54D695ED250AB3EE042A80EE020A3A
S31500002A68B4EE401AF1EE10FA08DD95ED241AB1EE2F
S31500002A78C10AB4EE400AF1EE10FA47D6B1EE4C1A86
S31500002A8881EE000A95ED231A20EE010A00F04AFAB3
S31500002A9830EE0B0A8BEE000A30EE000A30EE0B0A17
S31500002AA810EE100A03F0AAFE41EC110B9FED1A0B6B
S31500002AB802F002FB51EC100B04F081F900EE100A4B
S31500002AC880EE090A00F02EFA3BEE400A9FED1A1A2C
S31500002AD820EE0A0AB4EE410A286EF1EE10FA31FE2B
S31500002AE8000A3D284FF0000086ED150A38BF012080
S31500002AF886ED0F8ABDEC0A8B5DF804BBF0BDB0EE1F
S31500002B08420A01F074FEB0EE401AA3E7B0EE410A9D
S31500002B1801F06DFEB2E700BF00000000000024408F
S31500002B280EA211383333333F9AE4C23DD1476DC400
S31500002B3800007A4468A191380000FA43F0B503AF63
S31500002B482DE900072DED028BD7F80880D3F800C0D1
S31500002B58B1F80AE09FED980A9FED982A9FED981A1A
S31500002B680024464605E000BF0134A6EC013A062CCF
S31500002B7838D00CEB440595F80290ED78B0EE403A63
S31500002B8845EA092AF245EFD9B1F80890B0EE423A7B
S31500002B98D145E9D94D7803EE105AAAEB0E05B8EEE1
S31500002BA8433A04EE105A23EE013AB8EEC44AA9EBAA
S31500002BB80A0523EE043A04EE105AB8EEC44A83EE28
S31500002BC8044AB0EE423AB4EE424AF1EE10FACBDCD1
S31500002BD8B4EE404AB0EE443AF1EE10FA48BFB0EE11
S31500002BE8403AC1E79FED740A9FED742A08F118046C
S31500002BF8002604E00136A4EC013A072E38D00CEB87
S31500002C08460595F81290ED7CB0EE403A45EA092A59
S31500002C18F245EFD9B1F80890B0EE423AD145E9D974
S31500002C284D7803EE105AAAEB0E05B8EE433A04EEB9
S31500002C38105A23EE013AB8EEC44AA9EB0A0523EE68
S31500002C48043A04EE105AB8EEC44A83EE044AB0EECB
S31500002C58423AB4EE424AF1EE10FACBDCB4EE404A00
S31500002C68B0EE443AF1EE10FA48BFB0EE403AC1E78A
S31500002C789FED540AC2B35E68B6B334787678558940
S31500002C8846EA0426AE422AD91489B4422AD9527889
S31500002C9800EE102AB8EE400A721B20EE010A01EE79
S31500002CA8102AB8EEC11AA21B20EE010A01EE102A5C
S31500002CB8B8EEC11A80EE011A9FED400AB4EE401A2A
S31500002CC8F1EE10FA10DC9FED3C2AB0EE410AB4EEA4
S31500002CD8421AF1EE10FA48BFB0EE420A04E09FED40
S31500002CE8360A01E09FED350A88ED0D0A9CF80020AA
S31500002CF89CF801609FED342A46EA022201EE102A6A
S31500002D08026EB8EEC11A013238BF0266CA780E7969
S31500002D1821EE021A9FED2D2A46EA022231EE028A98
S31500002D2801EE102A9FED2A2AB8EEC11A81EE021A80
S31500002D388A79096902EE102A08F10805B8EE423ABE
S31500002D48B6EE004A93ED022AD3ED032A8A7963EE9A
S31500002D58041A2946F0EE480A43460646FFF774F970
S31500002D6898ED060A05463046F0EE480A4146FFF752
S31500002D78CFFD0DB1284618E098ED040A9FED151A07
S31500002D889A20B4EE410AF1EE10FA0ED49FED121A0B
S31500002D98B4EE410AF1EE10FA07DC9FED100AB4EE24
S31500002DA8408AF1EE10FAD8BF284640B2BDEC028B35
S31500002DB8BDE80007F0BD00BF0000C842A5D46853AF
S31500002DC800007A44002474494617BF3AA38B7E4113
S31500002DD80AD7234400007A43F9021550863876420A
S31500002DE8B0B502AF84B047F2784C01AD0C46C0F2DC
S31500002DF8000C294602220323CDF800C000F02AF968
S31500002E0828462946032200F0BBF847F29C4CC0F23C
S31500002E18000C2846214603220123CDF800C000F005
S31500002E2819F904B0B0BDD4D4B0B502AF84B047F236
S31500002E38AC4C01AD0C46C0F2000C29460222032315
S31500002E48CDF800C000F006F928462946032200F00E
S31500002E58EBF847F2D04CC0F2000C28462146032274
S31500002E680123CDF800C000F0F5F804B0B0BDD4D405
S31500002E78B0B502AF88B047F2E04C02AD0C46C0F2DE
S31500002E88000C294601220623CDF800C000F0E2F81E
S31500002E9828462946062200F073F847F2105CC0F26D
S31500002EA8000C2846214606220123CDF800C000F072
S31500002EB8D1F808B0B0BDD4D4F0B503AF4DF8048D41
S31500002EC890B047F22C5606AD8846C0F20006294651
S31500002ED80A220A23009600F0BDF8284629460A2247
S31500002EE800F04EF847F2E46401AEC0F2000428464A
S31500002EF831460A220523009400F0ACF830463146E4
S31500002F08052200F03DF847F2C075C0F200053046CC
S31500002F18414605220123009500F09CF810B05DF8A3
S31500002F28048BF0BD9FED131AB4EE410AF1EE10FAC8
S31500002F38C4BF9FED0F0A70479FED101AB4EE410A01
S31500002F48F1EE10FA44BF9FED0C0A704780B56F4644
S31500002F5810EE100A03F052FC41EC100B01F04CFC89
S31500002F6851EC100B03F02BFF00EE100A80BD00BFDA
S31500002F78EDB19D7A0000A44222CB4F040000A4C202
S31500002F88002A08BF7047F0B503AF4DF804BD2DED14
S31500002F980A8B9FED218A9FED219A9FED21AA9FED2D
S31500002FA821BA14460D460646B7EE00CA0EE000BF23
S31500002FB88CEE010A013C06F1040631EE402A31EE98
S31500002FC8000A82EE000AA5EC010A1ED096ED000A58
S31500002FD8B0EE481AB4EE490AF1EE10FAE8DCB4EE9F
S31500002FE84B0AF1EE10FAB0EE4A1AE1D410EE100AC6
S31500002FF803F004FC41EC100B01F0FEFB51EC100B46
S3150000300803F0DDFE01EE100AD2E7BDEC0A8B5DF88F
S3150000301804BBBDE8F0407047EDB19D7A0000A442BC
S3150000302822CB4F040000A4C2002A08BF70479FEDB8
S31500003038080A0439043800BF90ED011A043081FEED
S31500003048001A81ED011A0431013AF5D1704700BF23
S3150000305800000000002B08BF7047F0B503AF4DF81D
S3150000306804BDD7F808C0A0F1040E002003E000BF95
S315000030780130984218D0BCEC010A01EB8004002A02
S315000030881546764684ED000AF2D000BFBCEC011A5C
S3150000309896ED012A043621EE021A31EE000A013DA8
S315000030A884ED000AF2D1E3E75DF804BBBDE8F04021
S315000030B87047D4D4D0B502AF05490446054A02F094
S315000030C88BFF05480549204402F082FFD0BD00BFAA
S315000030D8F4000000000000000000000000000000EE
S315000030E80249401A02490860704700BF08000000FC
S315000030F81007002082B0B0B502AF88B00446104869
S31500003108019002208DF802006FF00040C7E9022303
S31500003118204407F108020025059068460695CDE982
S315000031280255ADF800500494079200F013F80028F1
S3150000313800D4255408B0BDE8B04002B0704700BFBF
S315000031484D310000D1E904239A421EBF531C0B617E
S3150000315810707047F0B503AF2DE9000F95B08146A2
S3150000316880781492800740F1DC84D9F804000026A0
S315000031780C908846149813900DA8821D0892421D3B
S315000031880138079205900A91414611F8010B252846
S3150000319803D0884640B900F0C6BC98F801A008F1EB
S315000031A80208BAF1250F06D100F0B5FD0136002850
S315000031B8EAD500F0B0BC002200244FF0000C4FF016
S315000031C8000B1FFA8BF51F2D0DD8AAF12700092829
S315000031D831D8DFE800F0B10A0A0A050A730A0A704C
S315000031E84BF0020B61E07F2D11D8AAF130000928B7
S315000031F82AD8402D27BF04EB840100EB41040CEBD1
S315000032088C0100EB410C38BF4BF0200B94E0BAF16F
S315000032184C0F4DD0BAF1680F53D0BAF16A0F47D0A8
S31500003228BAF17A0F18BFBAF1740F00F08580BAF1B7
S315000032386C0F4DD088E0BAF1200F36D0BAF1230FC3
S31500003248D3D14BF0100B77E0BAF1240F4DD0BAF179
S315000032587A0F71D0BAF12E0F41D0BAF14C0F27D0A0
S31500003268BAF1680F2DD0BAF16A0F21D0BAF16C0FF6
S315000032782ED0BAF1740F5FD0BAF12A0F64D1002AA2
S315000032885AD11398011D139100683F2D52D8B0F1F9
S31500003298FF3FDDBF4BF0280BC0F1000C00224BF0BE
S315000032A8200BC4BF0022844646E04BF0040B43E0E3
S315000032B84BF4207B40E04BF0010B3DE04BF0080B54
S315000032C83AE00BF480704BEA400040F4807B33E030
S315000032D80BF080004BEA800040F0800B2CE03F2D7D
S315000032E800F221844BF0400B26E0E2B11498402D01
S315000032F8CDF82C9091462246139038BF62460A981C
S3150000330813A9A246644600F019FC1398A44654462D
S315000033184A46011D1391DDF82C90402D006834BFF4
S315000033288446044608E0624600244FF0000C4FF03D
S31500003338000B01E00022044618F801ABBAF1000FB1
S315000033487FF43FAF4FF0000ACDF82CC03AB114987D
S3150000335813900A9813A900F0F1FBDDF82CC04AF087
S315000033682000002C24EAE475A0F1650148BF2BF083
S31500003378400B032901D3612830D11399A0EB0A0A1F
S31500003388073121F00701612801F10802139291ED36
S31500003398000B13D15FEA4B6058BF4FF0FF350DACF9
S315000033A85FFA8AF22946204600F0C0FC0546421C10
S315000033B870204BF4C05B0290012041E05FEA4B614C
S315000033C858BF0625C1B20DAC662920D0652926D17D
S315000033D865204BF4805B691C002326E05FFA8AF2BD
S315000033E8A2F16F01062959D8099208234FF0000E59
S315000033F8DFE811F0EF010700E901E901B001E90191
S31500003408A8014BF0100B10234FF0780EE1E166206F
S315000034184BF4005B0122029011212B4607E0290696
S31500003428294608BF01210023023802900022C9B2AA
S315000034382046112928BF112100F01FFD024602204F
S315000034480D9B13F1090F07DA13F1630F0DD213F56C
S315000034587A7F08D8042009E0092B07DD632B04D9F5
S31500003468B3F57A7FF6D2032000E002209DF83810E3
S315000034781FFA8BFC0390C8070CD196465FEA8B723D
S315000034880AD45FEA4C7220D40020724606904FF0A8
S31500003498010E1FE02D201AE02B2017E0692A18BF1D
S315000034A8642A40F039811FFA8BF05FEA0B6100F15C
S315000034B8408113990A1D13920A68C10540F140819B
S315000034C8800554BF12B252B23AE1202072460690E5
S315000034D84FF0000E11F00C0F19D00420BEF1000FAA
S315000034E818BF03200B99814221DD5FEA0B7120D4B6
S315000034F80B997546441A00F006FC002800F10B8368
S31500003508013406F10106F6D30024AE4613E01BF497
S31500003518405F42D1012D98BF0125D1B259B310465B
S315000035280A191279302A024625D1013AF5E700240C
S3150000353801E00B990C1ABEF1000F06D1069800F0AF
S31500003548EDFB002800F1E78201369DF83800DFF828
S31500003558E8550007DFF8DC0558BF05462878002837
S3150000356800F0D082A0EB0A0000F0DBFB0136013543
S315000035780028F3D5CFE25FEACC6048BF294613F1AD
S31500003588040F09DBAB4207DA8B424BF4005BAEBF94
S315000035980025D8430D1800E04D1E1FFA8BF15FEA8F
S315000035A88B404FEA015B04910993019207D40520E9
S315000035B8BBF1000F58BF03200399084403E0581CC9
S315000035C8012BB8BF0120691C8EF0010C002D049A4E
S315000035D808BFC2F3001101EB0C030B9C0344E41A69
S315000035E84FF00003D8BF1C4612F0090F12D18CB158
S315000035F808440B996044CDF800E0441A00F083FBB8
S31500003608002800F18882013406F10106F6D3DDF8B8
S3150000361800E00024BEF1000F06D1069800F07EFBFC
S31500003628002800F178820136BBF1000F0CD500F0B6
S3150000363866FB002800F16F82CAF1780000F071FB82
S31500003648002800F1688202360498000709D444B1BC
S31500003658264400F054FB002800F15D82013CF8D1B5
S31500003668002404980999019A80042DD49DF83900FC
S31500003678934631281EBF9DF8381001F0EF018DF8EA
S31500003688381000F048FB002800F14582012DC0F2F1
S31500003698E78000F03CFB002800F13D82A8195FFA9C
S315000036A88BF602300B900020854200F0A98100F1CC
S315000036B8010BB3453ABF0899085C302000F02BFB94
S315000036C800285846F0D526E2079821EAE17AC5F19E
S315000036D8000BCAF1000508440690D0B20B90012DE4
S315000036E805D100F014FB002800F11582013609986F
S315000036F841194FF0300004D40B9A9142BCBF06988A
S31500003708405DDA4555DD00F006FBAAF1010A0135F0
S3150000371801360028E3D5FEE1632A099253D11398AE
S3150000372801250DF1340A011D139100688DF8340046
S3150000373827E08005139800F19980011D139102680E
S31500003748D3179BE04FF6EF700BEA000B0A234FF0F6
S31500003758750E3EE01398011D13915FEA4B6158BF41
S315000037684FF0FF35D0F800A02946DFF8C403BAF1B8
S31500003778000F08BF8246504600F072FBDDF82CC0E9
S3150000378805465FEA0B7000F19881AB46AC4538BF39
S31500003798E346AC4540F290810C9A2020494664469F
S315000037A89047002800F1B781A4460136A4F1010C20
S315000037B8EFE70131C0F096819DF83910352940F2BE
S315000037C88B8131208EE1782840F00681CAF1880382
S315000037D8D646CDF824E04FF6F9700BEA000E5FEAFC
S315000037E80B600CD41398011D139100685FEACE5143
S315000037F80CD55FEA8E5154BF80B2C0B206E05FEACC
S315000038088E50139804D4011D13910068002107E017
S31500003818073020F007010A46496852F8080B139248
S3150000382850EA010208BF2BF0160E0DD00DF1340A2E
S315000038387446524600F034FADDF82CC0A0EB0A0BA9
S31500003848A646DDF824A037E05FEA4B62EED5012CE8
S31500003858ECDA4FF6E9700BEA000E4FF0000BF0E7D2
S315000038680498C00600F1C580701CC8E0073020F037
S3150000387807000146436851F8082B13915846002B58
S3150000388848BF40F4806020F0100E82EAE37083EAB5
S31500003898E371B0EBE37061EBE3711A4300F09280D9
S315000038A80DF1340B0A2374465A4600F0F9F9A64678
S315000038B8DDF82CC0A0EB0B0B5FEA4E6002D4714614
S315000038C858460CE04FF6FE700EEA0001AB45584626
S315000038D805DA2846BAF1000F08BF2EF011018AB2A0
S315000038E8C90605D440F20641114018BF012104E07B
S315000038F80221BAF1000F08BF01210C18099210071E
S315000039081AD4D00706D05D466445BEBF0BEB0C0043
S31500003918051B64462046A445C8BF60460690644514
S3150000392809DA00F0F0F9002800F1F58001340136D3
S31500003938DDF82CC0F3E7069C0999C80610D440F2B6
S315000039480640014221D088074FF02B0058BF20209F
S31500003958490548BF2D2000F0DEF9002812D5DAE027
S3150000396800F0CDF9002800F1D680BAF1000F09D091
S315000039780C9A5FFA8AF049469047002800F1CB80F6
S31500003988023600E00136DDF82CC0ACEB04045D45D8
S3150000399806DD00F0B4F9013D01360028F7D5BAE096
S315000039A80598002500EB0B0ACBF1000BAB4507D0B9
S315000039B81AF8050000F0B2F9013D0028F6D5AAE08C
S315000039C8761B9FE05FEA4B627FF56AAF012CBFF674
S315000039D867AF4FF0000B6FE70C9A252049469047D2
S315000039E8002800F19880099800F098F90236FFF748
S315000039F8DEBB00F08CF9002800F18D80B01C0B901E
S31500003A08029849460C9AA0EB0A00C0B290470028D3
S31500003A1800F181800999002908D405D19DF838005C
S31500003A28C00603D4002009902B2002E02D2049422D
S31500003A38099100F070F900286DD40398042815D36D
S31500003A4809994FF47A700C9AB1FBF0F5494605F1DD
S31500003A583000C0B2904700285DD44FF47A700999B7
S31500003A6805FB10110B9800F1030A05E00B990328D2
S31500003A7801F1020A09992CD1642000F037F90028CF
S31500003A8849D46420294606FB10510AF1010A0A2086
S31500003A9800F02CF900283ED406EB860029460AF1E8
S31500003AA8010AA5EB400101F1300000F03AF90028BF
S31500003AB831D40AF1010625E0DC462E44ACEB0504B8
S31500003AC805B31AF8010B00F029F9013D0028F7D5CE
S31500003AD821E00228DBD2E6E704D19DF83810C906B2
S31500003AE87FF56FAE00F017F9002814D40499701CFE
S31500003AF8C90606D52DB900F00AF900280BD40236F6
S31500003B0800E00646012CFFF63FAB00F0FCF8013654
S31500003B18013C0028F6D599F8020040F0040089F81F
S31500003B2802004FF0FF36304615B0BDE8000FF0BD75
S31500003B38FF720000D0710000AE720000F0B503AF4E
S31500003B482DE900078246554889464FF001084FF08F
S31500003B58010C5546944580F29D802B4613F8011BAF
S31500003B68252903D000291D46F7D193E06C78023544
S31500003B78252CF2D000264FF0000E0023B1B21F29E3
S31500003B8808D8A4F12001102906D808FA01F1014243
S31500003B9843D101E07F290AD8A4F13001092913D8B5
S31500003BA803EB830346F0200601EB430335E04C2C78
S31500003BB823D0682C24D06A2C1FD07A2C18BF742CDA
S31500003BC82BD06C2C23D033E07A2C26D02A2C18BF85
S31500003BD82E2C01D1002320E04C2C0ED0682C0FD0BF
S31500003BE86A2C0AD06C2C12D0742C16D0242C1FD117
S31500003BF8BEF1000F16D19E46ECE746F420760CE09F
S31500003C0806F4807146EA410141F4807605E006F043
S31500003C18800146EA810141F0800615F8014B002C27
S31500003C28ACD104E06345D5D16324E64600E0002420
S31500003C38BEF1000F2ED0E6457FF48CAF44F020018C
S31500003C48A1F16503032B01D361290BD1D9F8001023
S31500003C58073121F0070101F10803C9F800300CF11A
S31500003C68010C76E7E3B2732B0ED0642B18BF692BD1
S31500003C7808D1310608D5D9F80030B1B2890507D47C
S31500003C880433EAE7632BF4D1D9F800100B1DE4E7F7
S31500003C98D91DDEE7BDE80007F0BD00BF8928010091
S31500003CA8F0B503AF2DE9000B03F01F09984614463B
S31500003CB80D460646304629464A46002303F036F99D
S31500003CC800FB1962A2EB0803092A88BF03F1370231
S31500003CD8303204F8012BB6EB0902064675F10002EC
S31500003CE80D46E7D22046BDE8000BF0BD0C9AB1FBA5
S31500003CF8F0F60D4606F130004946C0B210470C9A58
S31500003D083020494610470C9A2020494610470C9AFD
S31500003D182E20494610470C9A4946104749460C9AA0
S31500003D2810470C9AC0B249461047D4D4F0B503AF31
S31500003D382DE9FE0F8146302089F8050050EC106BFE
S31500003D4890460D4631230446C0F30A5242EA06015C
S31500003D586FF31F54214307D02AB1A2F2FF3289F824
S31500003D680530322300E03D4A4FEAD07B002D89F822
S31500003D7804B003D40C2D03D90D253FE000253DE002
S31500003D883320A0EB850A06920220002152460193B1
S31500003D9802F044FB424205924FF000028A41049227
S31500003DA80138039061F100000021204002900120B3
S31500003DB8524602F033FB82460398069A3040BAEB25
S31500003DC80000029871EB00000BD3A800C0F1340282
S31500003DD803913046214602F0B7FD0399C007069ABB
S31500003DE808D016EB0A064C41B4F5801F24BF01988B
S31500003DF889F805000598064004980440B2F5806FD6
S31500003E0809D156EA04004FF0080008BF04205844B8
S31500003E1889F804001BE094461220411F16D016F0BC
S31500003E280F0201D1A9420BDCA2EB080357330A2A79
S31500003E3838BF02F1300309F80030A942C8BF0D4661
S31500003E48310941EA047624090138E6E76246C9F8E9
S31500003E580020284607B0BDE8000FF0BD02FCFFFFB2
S31500003E68D0B502AF4218034629B11C7814B10139FE
S31500003E780133F9E71A46101AD0BDF0B503AF2DE99C
S31500003E88000F9DB056EC109B8C46B046C6F30A55FB
S31500003E986FF31F58F40F59EA080108BF002D0BD01D
S31500003EA840F2FF76B54210D108224FF0000B0029E8
S31500003EB808BF0422111906E030214FF0010B4171A9
S31500003EC800210160A11C0171F4E10A920022022D71
S31500003ED8069438BF0122002918BF0121002D41EAA6
S31500003EE8020618BF08F580184FEA8801A5F235447E
S31500003EF841EA997113914FEA890104BF4FF6CC3410
S31500003F08CFF6FF74129109F00101049107A9002C5C
S31500003F1881E8091042D4204600F0FEFA8346032CB5
S31500003F2888BFABF1010B584600F002FB14AD824680
S31500003F385846294600F08EFB18A81AA92A460F9655
S31500003F48CDE90010ABEB04005044414600F17C0378
S31500003F584846029600F0CEF98246BBF1150F10913D
S31500003F6800F29A80129E139C3046214600F0B2F960
S31500003F78820842EA817120F0030008444042F04278
S31500003F8854D13046214600F0DBFA00210F915845FE
S31500003F984FF0000028BF0120119080E0C4F1000B0B
S31500003FA8584600F0BFFA8246601C18BFAAF1010AFB
S31500003FB8ABEB0A0B584600F0BBFA14A9054658465F
S31500003FC88B4600F0DBFA18A81AA95A460296CDE9DC
S31500003FD80010AAEB050000F17D034846414600F0B3
S31500003FE889F90AEB040B8046BAF1010F109105D83E
S31500003FF80498DDE9095250BB0F9631E0099DBAF1E4
S315000040083E0F31D84FF0FF304FF0FF31524602F0E5
S3150000401805FA139A22EA0101129A22EA00000843D5
S31500004028B0FA80F04009119000201FE0049810BBF8
S315000040380F98C043801964F1000100F081FA00214D
S31500004048119158454FF0000028BF012026E0DDE910
S315000040581A0101381A9061F100001B9000200F9098
S315000040680120089B119004E000201190089B0A9AF1
S315000040780F90C24616E046F00200214600F060FAAC
S31500004088DDE91A124B1E62F10004584538BF0B468B
S315000040981A9338BF14461B94002011900F900A9A61
S315000040A8DDE90835284672B1109950461C4600F0DD
S315000040B80FFA0BEB0401234608440128D8BF012058
S315000040C88542B8BF2846DDE918690025DDE91A41A9
S315000040D80B900020CDF814B0CDE9120020460E94BE
S315000040E80D9100F0EEF804468B4630464946CDF869
S315000040F8309000F0E6F88046001B894671EB0B000D
S315000041080DD31099504600F0E3F90B99884221DD4A
S315000041182A46012519B9109850EA0A001DD01099A7
S31500004128504600F0CEF810911299119AC9B200F0D3
S31500004138E7F908EB88010F9AC6EB41014646B1FA42
S3150000414881F1824649090A4013990F920131139168
S315000041585946C3E7DDF840B004E04FF0000A4FF0D7
S31500004168000B15460F9CDDF81490E0072BD0DDF800
S315000041783080CDE90F453046414600F0A2F80446A6
S3150000418800EB800040420D467142B1EB400F16D15C
S31500004198DDE90D1000F095F8CDE90D1050465946A9
S315000041A800F08FF88B461299119A2646C9B2A8468E
S315000041B800F0A6F91399824601311391DBE7DDE990
S315000041C80F45CDF83080139881441298C0B2411F2C
S315000041D818BF0121EA070CD10C9B8AEA060283EA7A
S315000041E80B031A4305D1049A82F001022240012AE0
S315000041F865D1119A82F001021143002241EA0A01AF
S31500004208042888BF012201EA02041AEB04064BF1CE
S31500004218000A3046514600F05BF98046FCB10B991E
S3150000422888451DDD0A9840B108984844404420EA6C
S31500004238E07109988842B8BF0146884510DD701DAF
S315000042480C464AF100010A22002302F06FFEA8F18B
S31500004258010809F101098A460646214600E00B993C
S315000042688845B8BF41460FFA89F0DDF81C900FFA69
S3150000427881FB0BF10405A0F1010800245C4512DA64
S31500004288304651460A22002302F050FE8A4600EBC9
S3150000429880010134A6EB4101064641F0300109F8D8
S315000042A80510013DEAE7069889F8040008EB0B00BB
S315000042B8C9F8000058461DB0BDE8000FF0BD01243E
S315000042C8A3E780B56F4600F005F8C00840EA4170DC
S315000042D8C90880BDF8B504AF02AA0092044A4FF097
S315000042E8CC3300F048FADDE9020104B080BD00BF16
S315000042F8CDCCCCCCF0B503AF2DE9000F8BB01E4664
S315000043089246D2E9002308AC0094490041EAD074E9
S3150000431845002846214600F02EFADAE902238B46A4
S3150000432805902146DDE9088906A80090284600F090
S3150000433822FA18EB000849EB0109DDE90801B8EB98
S31500004348000079EB01004FF0000038BF0120DDE9DD
S3150000435806124D1C42F10004002808BF14460794B3
S3150000436808BF0D460296413E9AE80F0012EB080276
S31500004378049643EB09030096059E069580194FF0AF
S3150000438800065BEB0100CDF80CB052F1000043F1DA
S315000043980001B0EB080271EB090238BF01266A1C5E
S315000043A844F10003002E04BF23462A4600F004FA0F
S315000043B8BA68C2E900013869012831D1DAE902018F
S315000043C8DAE900CEB8EB0006059B69EB0102701E20
S315000043D862F10001B3EB0C03039BDDF810A073EB4D
S315000043E80E03DDE906544FF00003CDF800A038BFF0
S315000043F80123002B04BF30461146B8EB000279EBC7
S3150000440801024FF0000638BF01266A1E64F1000358
S31500004418002E04BF2A46234600F0CEF9544649E04A
S31500004428029B9AE80340A3F14006039C059BDAF831
S315000044380CA00096660046EAD376D0EB430076EBEE
S3150000444801004FF000064FEA490040EAD8734FEAE8
S31500004458480040EAD474DDE9062C38BF0126B4EBDF
S315000044680E0E63EB0A05BEF1010065F10001002E90
S3150000447804BF29467046251A73EB01054FF000055F
S3150000448838BF0125B4EB080473EB09034FF00003AA
S3150000449838BF012343EA42044FEA4C0343EAD27683
S315000044A8621E66F10003002D04BF2246334600F063
S315000044B883F9049CFA68C2E900014046DDE906234F
S315000044C84946009400F078F90BB0BDE8000FF0BD3E
S315000044D8F0B503AF4DF804BD00230A2401220A25CE
S315000044E8461B71EB030607D3A5FB045603EB8303B0
S315000044F8013206EB4303F3E710465DF804BBF0BD53
S31500004508B1FA81F149090A4000EB80011192AAEB40
S31500004518410112917047D4D401494843800C704731
S315000045284134010001494843000D7047FB2E0B003A
S3150000453802494843012101EBD04070474F931200CE
S31500004548F0B503AF4DF804BD0A4B02460A4D4FF0CD
S31500004558FF304FF0CC3CA2FB0364013002FB0C4257
S3150000456801FB0321721B71F133323246F3D35DF836
S3150000457804BBF0BDCDCCCCCC34333333F0B503AF6C
S315000045882DE9000F89B08A461A21B0FBF1F20546DB
S3150000459802FB01FB2C4800EB02105D4502D100F03E
S315000045A8D3F84DE006A9294A0091A5EB0B0152F86C
S315000045B8314002EBC101D0E902234E68016803913C
S315000045C8416820460291314600F0D5F8804604A895
S315000045D8DDE90232894600902046314600F0CBF8E4
S315000045E80E46DDE904120390002018EB010859EB8A
S315000045F8020940F10000012801D100F09DF8284683
S31500004608FFF796FF04465846FFF792FF241A0398C9
S31500004618314642464B46009400F0CEF81E226FF013
S31500004628030302EA450203EA9503094DEB5800F035
S3150000463893F800F099F8009400F0BEF8CAE9020170
S3150000464809B0BDE8000FF0BDD8770000A8780000D3
S3150000465878790000F0B503AF2DE9000F89B08A46D6
S31500004668054619301A21B0FBF1F2304802FB01F673
S3150000467800EB0210AE4202D100F066F851E006A93E
S315000046882B4A0091711BD0E9009B52F8318002EB4E
S31500004698C101D0E902234C684046214600F06BF878
S315000046A8CDE9021004A8B9F101026BF100030090EC
S315000046B84046214600F05FF88B46DDE903310446A3
S315000046C8002011EB0308059A029952EB010940F103
S315000046D80000012801D100F02FF83046FFF728FF27
S315000046E806462846FFF724FF361A2046594642460C
S315000046F84B46009600F060F86FF003030D4C03EA92
S3150000470895031E2202EA4502E35800F025F8013017
S3150000471841F1000100F028F8009600F04DF8CAE9CA
S31500004728020109B0BDE8000FF0BD00BFD079000056
S31500004738A8780000C07A0000DDE90601013006907D
S3150000474841F100000790704790E80E00C0688AE8BB
S315000047580E00CAF80C00704723FA02F202F00302B0
S31500004768801841F100017047DDE90623CAE9000116
S31500004778404649467047F0B503AF4DF804BDA3FB64
S315000047880145D7F808E0A2FB0116A2FB00C25218A1
S31500004798744145F1000511462646E3FB0016A3FBC6
S315000047A80003801854EB030045F10000CEE90060D1
S315000047B860465DF804BBF0BDF0B503AF2DE9000B0C
S315000047C8D7F80880164689460546C8F1400230469D
S315000047D8194601F023FE06460C4628464946424637
S315000047E802F0B2F830432143BDE8000BF0BDB1EE4C
S315000047F8C00A7047D4D4D4D4F0B503AF2DE9800FDE
S315000048082DED068B55EC10ABB948EC0F25F000469C
S3150000481886421CD3BC48864236D328469FEDB20B47
S315000048286FF31F50294640EA0A0854EC106B5046AD
S3150000483852462B46B5F1FF3FC4BF2C46564601F0FB
S31500004848CBFDB8F1000F04BF2146304606E1A94862
S3150000485886422CD3A94886425BD8A948294600EB4C
S31500004868C40090ED000B504653EC102B02F0FEF9F5
S3150000487884F0010241EC190BA2EB0408A14A02EBF1
S31500004888C40292ED00AB74E09FED7D0B50462946BD
S3150000489853EC102B02F0D4FA40B30020BDEC068B83
S315000048A801B0BDE8000FBDE8F04001F065BBB0EE11
S315000048B8408A5046F0EE608A9FED6D0B294600F05F
S315000048C827F99FED6D0B59EC104B22464B4602F02B
S315000048D8B7FA4FF00008002800F0C88086488642DC
S315000048E84FD85046294622464B46B5E09FED660B03
S315000048F85046294653EC102B02F078FA48B10020AE
S31500004908BDEC068B01B0BDE8000FBDE8F04001F034
S3150000491823BB9FED5F0B29467C4853EC102B00EB1D
S31500004928C40090ED008B504602F096F953EC182B14
S3150000493801F052FD01F0A2FF804601F0CDFF9FED88
S31500004948560B0446894600F0EDF802460B465046DB
S31500004958294601F041FD9FED520B05460E462046BD
S3150000496853EC102B494602F077F941EC1A0B46EC4A
S31500004978195B51EC190B53EC1A2B02F077F941EC41
S31500004988180B59EC18AB5046494652464B4602F0AE
S3150000499863F99FED450B04460D4600F0C3F89FEDFD
S315000049A8440B00F0B5F800F0B7F89FED430B00F0A4
S315000049B8AFF800F0B1F89FED420B00F0A9F800F04F
S315000049C8ABF89FED410B00F0A3F800F0A5F800F056
S315000049D8B3F804460E46504649462246334602F088
S315000049E83BF905468B46B8F1000F27D09FED380BEB
S315000049F82246334651EC100B02F038F900F096F8CF
S31500004A0802460B4651EC1A0B02F030F902460B46E9
S31500004A1851EC190B02F02AF99FED170B00F078F804
S31500004A284FEA085211446FF47F73984516DA9FEDE2
S31500004A382A0B01F17A5100F075F80FE09FED280B6B
S31500004A482046314600F064F800F070F800F074F87B
S31500004A589FED090B53EC102B01F0BEFC41EC100B3B
S31500004A68BDEC068B01B0BDE8000FF0BD89E700BFBD
S31500004A789C7500883CE4377E000000000000F03F8B
S31500004A88EF39FAFE422E864051302DD5104987C09F
S31500004A98FE822B654715F73F0000E0FE422EE6BF73
S31500004AA8763C7935EF39EA3DD0A4BE726937663E61
S31500004AB8F16BD2C541BDBBBE2CDE25AF6A56113F90
S31500004AC893BDBE166CC166BF3E5555555555C53F77
S31500004AD80000000000000040000000000000700117
S31500004AE800000000000000C00000000000000000F8
S31500004AF8422E8640432ED63FFFFFEF3DB1A2F03F40
S31500004B08687B0000387B00000000F07F487B0000CF
S31500004B1853EC102B01F060BC02460B462046294692
S31500004B2802F09AB853EC102B02F096B802460B46E0
S31500004B382846594601F058BE02460B465046494695
S31500004B4802F094B8D4D4D4D4F0B503AF4DF8048D9C
S31500004B582DED028B56EC100BB0EE408AF0EE608A13
S31500004B68B6F5801F13DA26F00041014352D0B6F19C
S31500004B78FF3F58DD9FED320B314653EC102B02F008
S31500004B886BF841EC180B0E466FF0350000E000207C
S31500004B9833498E4204DB51EC180B02460B4630E0D3
S31500004BA800EB2650A0F2FF3404EBD47001F094FE1B
S31500004BB880460D46E00F6FF31F562A4946EA005015
S31500004BC8484052EC181B40EC101B00F055F851EC0D
S31500004BD8100B9FED1D0B53EC102B02F03DF89FEDCB
S31500004BE81C0B06460C4600F03FF83246234601F0F9
S31500004BF8F3FB9FED190B04460E4600F035F82246E6
S31500004C08334601F0E9FB41EC100BBDEC028B5DF875
S31500004C18048BF0BD0120BDEC028B5DF8048BBDE86A
S31500004C28F04001F0B9B9B0EE480AF0EE680ABDECFA
S31500004C38028B5DF8048BBDE8F04001F0BDB900BFFA
S31500004C4800000000000050430EE526157BCBDB3F35
S31500004C58362BF111F3FE593D00609F501344D33FA4
S31500004C680000F07F0000F03F404653EC102B294629
S31500004C7801F0F2BFD4D4D4D4F0B503AF2DE9800F38
S31500004C882DED0A4B54EC100BB4F5801F12DA24F004
S31500004C980041014362D0B4F1FF3F40F30B819FED21
S31500004CA8D00B214600F0F0F941EC100B0C466FF0E2
S31500004CB8350000E00020EA498C420CDB51EC100B71
S31500004CC802460B4601F088FB41EC180BB0EE480A89
S31500004CD8F0EE680A66E1A246E2496FF31F5A00EB56
S31500004CE82450514400EB1150A0F2FF3B01F4801010
S31500004CF8DD495044414052EC100B9FEDBB0B00F0D0
S31500004D08B9F90546A01C0E466FF31F5002282FD886
S31500004D189FEDCF8B2846314653EC182B02F058F8F6
S31500004D28002800F0D080BBF1000FCFD0584601F024
S31500004D38D3FD9FEDC50B04460D4600F0A5F99FED82
S31500004D48BE0B06468846204653EC102B294601F032
S31500004D5883FF3246434601F03FFB21E10120BDECCB
S31500004D680A4B01B0BDE8000FBDE8F04001F014B9E8
S31500004D789FED9F0B2846314600F07CF902460B460C
S31500004D88284631460695079601F02EFD02460B4643
S31500004D980390049101F060FF02460B4606460C4656
S31500004DA801F05AFF9FED940B8046894600F06CF996
S31500004DB89FED930B00F05EF900F060F99FED920B02
S31500004DC800F058F900F05AF99FED910B0546CDF819
S31500004DD814B08B4653EC102B4046494601F03CFF75
S31500004DE89FED8D0B00F046F900F048F99FED8C0B0E
S31500004DF800F040F900F042F99FED8B0B00F03AF90C
S31500004E0802460B463046214601F026FF02460B466F
S31500004E1828465946059D01F0DFFA814693488B4698
S31500004E289349A0EB0A00514441EA0004284601F0E0
S31500004E3853FD0E46012C0190C0F280809FED800B39
S31500004E48029653EC102BDDF81880079C4046214645
S31500004E5801F002FF02460B464046214601F0FCFEE1
S31500004E684A465B468246009101F0B6FA06468B46EC
S31500004E78002D00F09D809FED740BDDF8049053EC37
S31500004E88102B0299484601F0E7FE44460546884637
S31500004E9800F0FEF82A46434601F09EFA00F004F9AF
S31500004EA8079B224601F0E2FE9FED630B04460D4682
S31500004EB848466CE0BDEC0A4B01B0BDE8000FBDE802
S31500004EC8F04001F079B89FED640B2846314600F0B2
S31500004ED8DBF89FED5B0B00F0CDF8044688462846C4
S31500004EE831462A46334601F0B7FE2246434601F0CC
S31500004EF8B3FE04468A46BBF1000F62D0584601F05D
S31500004F08EBFC9FED4B0B8046894600F0BDF8024648
S31500004F180B462046514601F05FFA2A46334601F011
S31500004F28A5FE9FED450B04460E46404653EC102B56
S31500004F38494601F091FE224633462FE0DDF818A0D7
S31500004F484A46DDF81C805B465046414601F08EFE17
S31500004F5804468946E5B39FED360B3146DDF804B0C5
S31500004F6853EC102B584601F077FE029605460E467E
S31500004F7800F094F82A46334601F02EFA5246434684
S31500004F8801F074FE9FED2C0B04460D46584653EC73
S31500004F98102B029901F060FE22462B4601F066FEB0
S31500004FA841EC100BBDEC0A4B01B0BDE8000FF0BD9B
S31500004FB800F06EF800F078F802460B4640462146A7
S31500004FC803E0284631462246534601F04FFE7BE66B
S31500004FD800F064F802460B4650464146DEE700BF3D
S31500004FE80000000000005043000000000000F0BF71
S31500004FF800000000000000409FC678D0099AC33F11
S31500005008AF788E1DC571CC3F04FA97999999D93F07
S3150000501844523EDF12F1C23FDE03CB966446C73FD9
S31500005028599322942449D23F935555555555E53FF2
S31500005038763C7935EF39EABD0000E0FE422EE63FC0
S31500005048000000000000E03F763C7935EF39EA3D84
S315000050580000000000000000555555555555D5BFB0
S315000050680000F07F645F09000000F03F51B80600B9
S3150000507886EBF9FF53EC102B01F0AEB902460B464E
S315000050884046494601F0E8BD53EC102B01F0E4BD5B
S31500005098DDE9030132465B4601F0DEBDDDE90301C9
S315000050A822464B4601F0D8BD0B46009902465046AB
S315000050B801F0DCBDD4D4D4D4F0B503AF2DE9800F0C
S315000050C82DED048B92B058EC11AB54EC106B28F014
S315000050D8004050EA0A0135D0AF4924F000458D4218
S315000050E80DD8B0EE408AF0EE608A0EB18D4206D039
S315000050F8884204D8BAF1000F4AD0884248D1A74856
S31500005108214652464346204440EA0605304601F009
S3150000511863F99FEDA30B4FEA4804A34E002D52EC0A
S31500005128103B44EADA741CBF0A4603460025B44617
S31500005138012684F48014D6EB4A0674EB0C0438BFB7
S31500005148012516E060000025012240EAD67096493E
S31500005158D2EB460280F480105246884121463046FA
S31500005168434638BF012501F037F99FED8D0B52EC08
S31500005178103B002D04BF0A46034642EC183B00F0DC
S3150000518888FD12B0BDEC048B01B0BDE8000FF0BD80
S31500005198B4F1FF3F02DD4FF0000B06E0834B03F14D
S315000051A8007290425BD94FF0020BBAF1000F22D081
S315000051B89FED7F0BA14653EC102BDA0F62F3DF79D4
S315000051C886B34FF0FF3202EBD4735BEA030200F0BA
S315000051D8A980794AB0F1844F57D901F144418842F0
S315000051E87ED9501C854280F0D180B8F1FF3F40F34C
S315000051F8D18000203AE3884240F00E84674828446C
S31500005208304378D06C48854240F298809FED680B11
S31500005218B8F1FF3F50EC101BC4BF4046514640EC66
S31500005228181BACE78D4205D0002D00F0A380634A19
S315000052389542C6D19FED5A0B32464B4600F01CFDEF
S31500005248B8F1000FA4BF4946304641EC100BB4F143
S31500005258FF3F53DDB0EE408AF0EE608A8FE7564A8C
S31500005268904298D9020D98427DD940F233439A1A52
S315000052784FF0000B2AFA02F303FA02F203F00103D5
S31500005288924508BFC3F1020B8FE79FED4D0B3046E1
S315000052980893494600F0DAFC03464B483530B5F525
S315000052A8801F3ABF4FF6CC30CFF6FF70294600EB89
S315000052B8215241486FF31F51B5F5801F084428BF96
S315000052C8334600F101094148CDF824B08142C0F0C7
S315000052D885803F48814280F07D80079201217FE0EA
S315000052E8E00F954280F0B48200EA0B00B8F1FF3F68
S315000052F800F3BC8225E29FED2A8B40E7274A2A4421
S3150000530852EA0B020ED08DED0E0BBBF1010F9DF884
S315000053183F2082F080028DF83F200E9A18BF024681
S315000053280F9864E300F0B5FC12B0BDEC048B01B035
S31500005338BDE8000FBDE8F04000F03EBE8DED0C1B49
S31500005348B8F1000F9DF837009FED190B80F080002B
S315000053588DF8370051EC100B0C9AA8BF02460D9831
S31500005368A8BF084645E3BAF1000F00F046834FF0A0
S31500005378000B1DE7B8F1FF3F40F3D683BBF1010FE1
S315000053880CBFA146364649EC186BF8E6B8F1010F92
S31500005398FFF62FAF0020D4E10000F07F000010C018
S315000053A8000000000000F03F0000F0FFFFFF3F4153
S315000053B80000000000000000FFFFEF3F0000F03F84
S315000053C80000000000004043CCFBFFFF8F9803005D
S315000053D87AB60B00E048013241EA0009002107923B
S315000053E8DFF83C081E460B9100EBC100494690EDDC
S315000053F8000B184655EC104B03940595019322466D
S315000054082B4601F033FC8346009120462946324656
S3150000541800F03CFC1FED1E0B02460B4600F02CFC70
S315000054280290024606910B46009D58465E4629465E
S3150000543801F012FC0A90CB4689460B994FF00050B2
S31500005448002240EA5B0000EB8140494600F5002453
S31500005458002000F004FC02460B463046294601F0BF
S3150000546805FC039A0546059B0E460020214601F0D9
S31500005478FDFB024601980B46594601F0F7FB02462A
S315000054880B460020494601F0E7FB02460B46284634
S31500005498314601F0EBFB02460B460298069901F0ED
S315000054A8DBFB0690044605910D460A9E49460022F6
S315000054B84B46304600F090FF02460B4620462946EA
S315000054C801F0CAFB03900D463046494632464B4624
S315000054D8CDF8109001F0C0FB9FEDA10B06460C46D7
S315000054E800F0B4FB9FEDA00B00F0A0FB00F0A8FBBA
S315000054F89FED9F0B00F09AFB00F0A2FB9FED9E0B21
